:100000000C945C000C946E000C946E000C946E00CA
:100010000C946E000C946E000C946E000C946E00A8
:100020000C946E000C946E000C946E000C946E0098
:100030000C946E000C946E000C946E000C946E0088
:100040000C941B010C946E000C946E000C946E00CA
:100050000C946E000C946E000C946E000C946E0068
:100060000C946E000C946E00000000080002010069
:100070000003040700000000000000000000000072
:10008000250028002B0000000000240027002A0083
:10009000040404040404040402020202020203032E
:1000A0000303030301020408102040800102040836
:1000B000102001020408102011241FBECFEFD8E049
:1000C000DEBFCDBF21E0A0E0B1E001C01D92AD30A8
:1000D000B207E1F70E9465010C9447030C940000FD
:1000E00090E0FC01E859FF4F3491FC01EC55FF4FC3
:1000F0002491FC01E057FF4FE491EE2309F43BC04B
:10010000332339F1333091F038F43130A9F0323003
:1001100001F584B58F7D12C0373091F03830A1F0F1
:100120003430B9F4809180008F7D03C080918000CD
:100130008F77809380000DC084B58F7784BD09C010
:100140008091B0008F7703C08091B0008F7D809345
:10015000B000F0E0EE0FFF1FE458FF4FA591B491FF
:100160008FB7F894EC91611103C020952E2301C044
:100170002E2B2C938FBF08953FB7F89480910501E3
:1001800090910601A0910701B091080126B5A89BA6
:1001900005C02F3F19F00196A11DB11D3FBFBA2F19
:1001A000A92F982F8827820F911DA11DB11DBC0179
:1001B000CD0142E0660F771F881F991F4A95D1F73E
:1001C00008958F929F92AF92BF92CF92DF92EF925B
:1001D000FF926B017C010E94BC004B015C01C114C9
:1001E000D104E104F104F1F00E94BC00DC01CB0178
:1001F00088199909AA09BB09883E9340A105B10550
:1002000070F321E0C21AD108E108F10888EE880EE7
:1002100083E0981EA11CB11CC114D104E104F104B7
:1002200019F7DDCFFF90EF90DF90CF90BF90AF90A8
:100230009F908F9008951F920F920FB60F921124E6
:100240002F933F938F939F93AF93BF93809101011F
:1002500090910201A0910301B0910401309100013D
:1002600023E0230F2D3720F40196A11DB11D05C0F9
:1002700026E8230F0296A11DB11D20930001809353
:10028000010190930201A0930301B09304018091B6
:10029000050190910601A0910701B0910801019616
:1002A000A11DB11D8093050190930601A093070144
:1002B000B0930801BF91AF919F918F913F912F9182
:1002C0000F900FBE0F901F901895789484B58260A0
:1002D00084BD84B5816084BD85B5826085BD85B5EA
:1002E000816085BD80916E00816080936E00109268
:1002F00081008091810082608093810080918100E3
:100300008160809381008091800081608093800073
:100310008091B10084608093B1008091B0008160D1
:100320008093B00080917A00846080937A008091FD
:100330007A00826080937A0080917A008160809355
:100340007A0080917A00806880937A001092C100D0
:1003500083EC95EFA8EABEE38093090190930A012C
:10036000A0930B01B0930C01E1EBF0E02491EDE9D7
:10037000F0E08491882399F090E0880F991FFC01A8
:10038000EA57FF4FA591B491FC01E458FF4F8591C6
:1003900094918FB7F894EC91E22BEC938FBFC0E06F
:1003A000D0E0C0900901D0900A01E0900B01F090DC
:1003B0000C012DEC3CEC4CEC5DE3C701B6010E9456
:1003C00032024B015C016093090170930A01809332
:1003D0000B0190930C0161E08DE00E94700068EECB
:1003E00073E080E090E00E94E10060E08DE00E9418
:1003F000700068EE73E080E090E00E94E100A501EB
:100400009401C701B6010E9432026B017C0120E019
:1004100030E040E450E40E941E03181674F4C70153
:10042000B6010E949E020E94E100A7019601C5014B
:10043000B4010E9431026B017C01A7019601C70142
:10044000B6010E9432026093090170930A01809301
:100450000B0190930C01209709F4A3CF0E94000098
:10046000A0CF5058BB27AA270E9449020C94E4024F
:100470000E94D60238F00E94DD0220F039F49F3F3E
:1004800019F426F40C94D3020EF4E095E7FB0C94D7
:10049000CD02E92F0E94F50258F3BA1762077307DD
:1004A0008407950720F079F4A6F50C9417030EF451
:1004B000E0950B2EBA2FA02D0B01B90190010C0174
:1004C000CA01A0011124FF27591B99F0593F50F48C
:1004D000503E68F11A16F040A22F232F342F4427E4
:1004E000585FF3CF469537952795A795F0405395DC
:1004F000C9F77EF41F16BA0B620B730B840BBAF0AC
:100500009150A1F0FF0FBB1F661F771F881FC2F716
:100510000EC0BA0F621F731F841F48F4879577952A
:100520006795B795F7959E3F08F0B0CF9395880FE4
:1005300008F09927EE0F9795879508950E94FD0280
:1005400088F09F5798F0B92F9927B751B0F0E1F094
:10055000660F771F881F991F1AF0BA95C9F714C044
:10056000B13091F00E941703B1E008950C94170385
:10057000672F782F8827B85F39F0B93FCCF386957D
:1005800077956795B395D9F73EF4909580957095DA
:1005900061957F4F8F4F9F4F089597F99F6780E830
:1005A00070E060E008959FEF80EC089500240A94C5
:1005B0001616170618060906089500240A9412163E
:1005C0001306140605060895092E0394000C11F471
:1005D000882352F0BB0F40F4BF2B11F460FF04C01E
:1005E0006F5F7F4F8F4F9F4F089557FD9058440F77
:1005F000551F59F05F3F71F04795880F97FB991F82
:1006000061F09F3F79F0879508951216130614063E
:10061000551FF2CF4695F1DF08C0161617061806CB
:10062000991FF1CF86957105610508940895E894A6
:10063000BB2766277727CB0197F908950E942303EC
:1006400008F48FEF0895990F0008550FAA0BE0E802
:10065000FEEF16161706E807F907C0F01216130684
:10066000E407F50798F0621B730B840B950B39F4C4
:100670000A2661F0232B242B252B21F408950A262A
:1006800009F4A140A6958FEF811D811D0895F8946E
:02069000FFCF9A
:00000001FF
